:02000000162ABE
:10000800F000030E83120313A0000B1C3C28861F6C
:100018002228B40AA10132308312031321020318E3
:100028002228A201FA3083120313220203181E2881
:10003800A20A162883120313A10A0F288312031396
:10004800061F3B28B403A101323083120313210297
:1000580003183B28A201FA30831203132202031863
:100068003728A20A2F2883120313A10A28280B1065
:1000780083120313200E8300F00E700E0900000097
:10008800080083160313061483120610831606103D
:1000980032308312AA00432083120313AA0B4F287D
:1000A8008316061403308312AA0043208312031315
:1000B800AA0B59282B1006182B142D30AA00432000
:1000C80083120313AA0B63282B1C6C2806157128AE
:1000D8008312031306154320061143204328831275
:1000E8000313AA000830AB0083120313AB080319EB
:1000F800A0282D102A182D140610831606100000AB
:10010800061483122D1C8B28831606148E2883163A
:1001180003130610063083120313AC004320831226
:100128000313AC0B9228831606140000000003107A
:100138008312AA0CAB0378288312031306154320F5
:1001480006114320061543200611080083120313E5
:1001580006154320061143200615432006114320A7
:100168000615432006110830AA00AB0183120313B9
:10017800AA080319DB280610831606104320061464
:100188008312061506112D1006182D140430AC0024
:10019800432083120313AC0BCC280310AB0C2D1C8B
:1001A800D7288030AB0783120313AA03BA28432049
:1001B800831203132B08080083120313AC000230C8
:1001C800831681008312031381017D308312031388
:1001D8000102031CE92883120313AC0BE62808006C
:1001E800FF0007308316031381002730831203139F
:1001F8000107FF007F08831203130106031DFE2871
:10020800FF0BF928080083120313B000B101113065
:10021800B2001B2983120313B10DB30D300831024C
:1002280033180314031C1B2983120313B100831210
:100238000313AE0DAF0DB20B0E292E080800831262
:100248000313B000B1011030B20083120313AE0DD6
:10025800AF0DB10DB30D3008310233180314031C70
:10026800382983120313B10083120313B20B29290F
:100278003108080083120313AB00C7010230AC0039
:10028800831203132B08AE00AF010A302321831217
:100298000313AD003030AD0744302C0784008313BE
:1002A8002D088000AC0803196629831203132B0854
:1002B800AE00AF010A300721831203132E08AB00EA
:1002C800AC034429080083120313C8012B30C4006F
:1002D800FF1F7229FF09FF0A2D30C4000330FF00F9
:1002E8007F08FF00FF01FF1BFF030A30FF003E21CC
:1002F8007F08FF003030FF0744307F0784008313F6
:100308007F0880007F03031995297F08FF00FF01FC
:10031800FF1BFF030A30FF0023217F08FF00FF03B4
:100328007429080083120313C9010430FF007F08F1
:1003380083120313AE007F08AF000A302321FF00A9
:100348003030FF0744307F07840083137F08800024
:10035800FF080319BF297F0883120313AE007F0823
:10036800AF000A300721831203132E08FF002F085D
:10037800FF00FF039B29080083120313CA012B30D7
:10038800C400FF1FCE29FF09FF09FF0A0319FF0A4E
:100398002D30C4000530FF007F08FF007F08FF00F4
:1003A8000A30FF003E217F08FF003030FF0744304D
:1003B8007F07840083137F0880007F030319F129D6
:1003C8007F08FF007F08FF000A30FF0023217F0815
:1003D800FF007F08FF00FF03D029080083120313E2
:1003E8004608FF003030FF027F08FF004508FF0085
:1003F8003030FF027F08FF000A3007217F08FF0026
:100408007F08FF074408313A031D0C2A6430FF07B0
:10041800831203134408323A031D142AC830FF0715
:100428007F080800831203131F149F141F1516302A
:10043800A3001630A4001A30B40083168113C33009
:100448008600F0308500E3230530402445208312E0
:100458000313061957240230E020831203130615EC
:100468000130E0208312031306112423831203139F
:10047800861C942A861202301124831203138616CE
:10048800A50108308312031325020318522A2508F0
:10049800A723112483120313A50A452A4E23DF300C
:1004A800112443301124203011248312031386129F
:1004B800C0301124831203138616A5010830831255
:1004C8000313250203186F2A2508B6231124831263
:1004D8000313A50A622A8312031334083E212B3022
:1004E8001124013083120313A50003308312031370
:1004F80025020318892A443025078400831300083D
:10050800112483120313A50A792A2E3011243030BE
:100518001124DF3011244330112420301124042BFE
:1005280083120313861202301124831203138616D2
:10053800A50108308312031325020318AA2A2508E7
:10054800C523112483120313A50A9D2A83120313BA
:1005580023083E212B301124013083120313A500F8
:1005680003308312031325020318C42A44302507D5
:10057800840083130008112483120313A50AB42AE4
:100588002E30112430301124DF301124433011244F
:10059800831203138612C0301124831203138616A4
:1005A800A50108308312031325020318E22A25083F
:1005B800D423112483120313A50AD52A8312031303
:1005C80024083E212B301124013083120313A50087
:1005D80003308312031325020318FC2A443025072D
:1005E800840083130008112483120313A50AEC2A3C
:1005F8002E30112430301124DF30112443301124DF
:10060800831203134308230203180C2B4308A30087
:1006180083120313240843020318142B4308A4006D
:100628008312031334084302031C1C2B06161F2BCA
:100638008312031306128B158B178B118B13392A10
:100648004520CC307320443073208B158B17FA303B
:10065800E020FA30E020FA30E0208B118B1345209F
:10066800CC307320BE30732083120313A8010C30E2
:1006780083120313280203184D2BAA208312031395
:10068800A900373028078400831329088000A80AA6
:100698003B2B0800831203138616B81D722B2D30CE
:1006A8001124831203133708C300C3090310C30CB2
:1006B800C30A43083E2183120313AA01033083129D
:1006C80003132A020318772B44302A078400831364
:1006D8000008112483120313AA0A622B831203133E
:1006E800370E0F39A80083120313380EF039A9000A
:1006F80028082907C3002B30112483120313430849
:100708003E21013083120313AA000330831203131E
:100718002A020318992B44302A07840083130008FF
:10072800112483120313AA0A892B83120313B71DFA
:10073800A22B2E30112435301124A62B2E30112453
:100748003030112C080083120313A80003308A00EC
:1007580028088207543465346D3470342034693481
:1007680073343A3483120313A80003308A0028082C
:100778008207463461346E3420344F344E343A3470
:10078800203483120313A80003308A002808820744
:1007980048346934673468346534733474343A34AB
:1007A80083120313A80003308A00280882074C34F8
:1007B8006F3477346534733474343A3420342830E1
:1007C800E0208312031386123330112432301124AF
:1007D800283011240C301124013011240630112442
:1007E80083120313861608003C30E020831203139B
:1007F8008612223011240A30E020283011240A30D1
:10080800E0200C3011240A30E020013011240A3095
:10081800E020063011240A30E02883120313AB00CD
:10082800AB1F8511AB1B85152B1F05112B1B051540
:10083800AB1E8510AB1A85142B1E05102B1A051438
:100848008611000086150530E02083120313AB1DC6
:100858008511AB1985152B1D05112B190515AB1C19
:100868008510AB1885142B1C05102B180514861140
:10087800000086150530E02883120313A800B6018E
:1008880083120313280836020318562C0612FA306E
:10089800E020831203130616FA30E02083120313B4
:1008A800B60A442C08008312031306123230E020E3
:0C08B8008312031306163230E020572C88
:02400E0070211F
:00000001FF
