:02000000822A52
:10000800F000030E83120313A0000B1C3C28861F6C
:100018002228BB0AA10132308312031321020318DC
:100028002228A201FA3083120313220203181E2881
:10003800A20A162883120313A10A0F288312031396
:10004800061F3B28BB03A101323083120313210290
:1000580003183B28A201FA30831203132202031863
:100068003728A20A2F2883120313A10A28280B1065
:10007800831203133A14200E8300F00E700E090049
:100088000000080083160313061483120610831653
:10009800061032308312B100442083120313B10BCF
:1000A80050288316061403308312B10044208312AB
:1000B8000313B10B5A283210061832142D30B10030
:1000C800442083120313B10B6428321C6D280615D3
:1000D800722883120313061544200611442044286D
:1000E80083120313B1000830B20083120313B2085D
:1000F8000319A12834103118341406108316061079
:10010800000006148312341C8C28831606148F28CA
:10011800831603130610063083120313B30044201A
:1001280083120313B30B93288316061400000000F0
:1001380003108312B10CB203792883120313061536
:100148004420061144200615442006110800831295
:1001580003130615442006114420061544200611F1
:1001680044200615442006110830B100B20183125C
:100178000313B1080319DC2806108316061044205F
:1001880006148312061506113410061834140430A8
:10019800B300442083120313B30BCD280310B20C11
:1001A800341CD8288030B20783120313B103BB284C
:1001B8004420831203133208080083120313B20089
:1001C8000230831681008312031381017D3083126C
:1001D80003130102031CEA2883120313B20BE72856
:1001E8000800FF00073083160313810027308312AD
:1001F80003130107FF007F08831203130106031D81
:10020800FF28FF0BFA28080083120313B300B40178
:100218001130B5001C2983120313B40DB60D330831
:10022800340236180314031C1C2983120313B40068
:1002380083120313B10DB20DB50B0F293108080055
:1002480083120313B7011130B80036083506B90018
:10025800B51F3A2983120313B509B409B40A03195F
:10026800B50AB808031D3A29340808008312031395
:10027800B61F4829B609B60A482983120313B70DD1
:10028800360837020318B70083120313B40DB50DEF
:10029800B80B4129B91B2E2983120313340808000F
:1002A80083120313B300B4011030B5008312031393
:1002B800B10DB20DB40DB60D33083402361803145F
:1002C800031C692983120313B40083120313B50BAB
:1002D8005A293408080083120313B7011030B800F4
:1002E8003508B900B51F7D29B509B409B40A031941
:1002F800B50A83120313B61F8329B609B60A8312F7
:100308000313B40DB50DB70D360837020318B7003F
:1003180083120313B80B8329B91F9429B709B70AA5
:10032800831203133708080083120313AE00CD01AC
:100338000230AF00831203132E08B100B2010A3055
:10034800542183120313B0003030B0074A302F070E
:100358008400831330088000AF080319C029831272
:1003680003132E08B100B2010A30082183120313C7
:100378003108AE00AF039E29080083120313CE0193
:100388002B30CA00B11FCC29B109B10A2D30CA00DF
:10039800033083120313B200831203133108B4002D
:1003A800B501B41BB5030A30B6006F2183120313DD
:1003B8003708B3003030B3074A303207840083135C
:1003C8003308800032030319F92983120313310813
:1003D800B400B501B41BB5030A30B600242183125A
:1003E80003133408B100B203D029080083120313A1
:1003F800CF010430FF007F0883120313B1007F0888
:10040800B2000A305421FF003030FF074A307F071E
:10041800840083137F088000FF080319232A7F08BC
:1004280083120313B1007F08B2000A300821831237
:1004380003133108FF003208FF00FF03FF290800FB
:1004480083120313D0012B30CA00FF1F322AFF0981
:10045800FF09FF0A0319FF0A2D30CA000530FF0003
:100468007F0883120313B4007F08B5000A30B60072
:100478006F21831203133708FF003030FF074A301B
:100488007F07840083137F0880007F0303195D2A98
:100498007F0883120313B4007F08B5000A30B60042
:1004A8002421831203133408FF003508FF00FF03DB
:1004B800342A0800831203134C08FF003030FF026F
:1004C8007F08FF004B08FF003030FF027F08FF0065
:1004D8000A3008217F08FF007F08FF074A08313AE1
:1004E800031D782A6430FF07831203134A08323A3F
:1004F800031D802AC830FF077F08080083120313F2
:100508001F149F141F151630A4001630A500AD0146
:100518000030552583120313BB003B0A0319972AA1
:10052800BB08031D9C2A143083120313BB003A1422
:10053800831603138113C3308600F0308500F62438
:100548000530872646208312031306199E2602309B
:10055800E1208312031306150130E12083120313EF
:100568000611831203133A1CC02A3B08AE00003060
:100578003A25831203133A101F2483120313861C8F
:100588001B2B861202300B25831203138616A60135
:1005980008308312031326020318D92A2608BA241E
:1005A8000B2583120313A60ACC2A4924DF300B2516
:1005B80043300B2520300B25831203138612C030DD
:1005C8000B25831203138616A60108308312031322
:1005D80026020318F62A2608C9240B2583120313BA
:1005E800A60AE92A831203133B0898212B300B250E
:1005F800013083120313A60003308312031326026B
:100608000318102B4A3026078400831300080B2593
:1006180083120313A60A002B2E300B2530300B252E
:10062800DF300B2543300B2520300B25F52B8312AB
:100638000313861202300B2501300B258312031396
:100648008616A60108308312031326020318332BDB
:100658002608D8240B2583120313A60A262B8312F7
:1006680003132408B100C121F025013083120313BC
:10067800A600043083120313260203184D2B4A30B8
:1006880026078400831300080B2583120313A60A88
:100698003D2B2E300B2530300B25DF300B2543301A
:1006A8000B25831203138612C0300B258312031304
:1006B8008616A601083083120313260203186B2B33
:1006C8002608E7240B2583120313A60A5E2B831240
:1006D80003132508B100C121F0250130831203134B
:1006E800A60004308312031326020318852B4A3010
:1006F80026078400831300080B2583120313A60A18
:10070800752B2E300B2530300B25DF300B25433071
:100718000B2583120313AD080319EF2BFA30E120E0
:10072800FA30E120FA30E120FA30E120A1248312E6
:100738000313861202300B2501300B258312031395
:100748008616A80108308312031328020318CE2B3B
:100758003D302807840083130F300005A9003D3081
:10076800280784008313000E0F39AA00290864257E
:1007780083120313AB002A08642583120313AC0009
:100788002C080B25831203132B080B258312031344
:10079800A80AA62B831203138612C0300B258312D6
:1007A80003138616FB30AE002E08B100C121F025D8
:1007B80083120313A60104308312031326020318BD
:1007C800EF2B4A3026078400831300080B25831279
:1007D8000313A60ADF2BFA30E120FA30E120FA30C1
:1007E800E120831203134908240249082406031848
:1007F800803A8039031D022C4908A4008312031390
:1008080025084902490825060318803A8039031D3E
:100818000F2C4908A500831203133B084902031C47
:10082800172C06161A2C8312031306128B158B1716
:100838008B118B13B52A4620CC3074204430742099
:100848008B158B17FA30E120FA30E120FA30E120DD
:100858008B118B134620CC307420BE307420831249
:100868000313AE010C30831203132E020318482C15
:10087800AB2083120313AF003D302E07840083138F
:100888002F088000AE0A362C080083120313861640
:10089800BE1D702C3D0E0F39AE003E0EF039AF0074
:1008A8002E082F07C900C90A4908B100C121F0253F
:1008B800013083120313B000043083120313300293
:1008C8000318932C4A3030078400831300080B2543
:1008D80083120313B00A602C831203133D0E0F39E1
:1008E800AE003E0EF039AF002E082F07C9004908A8
:1008F800B100C121F025013083120313B000043088
:100908008312031330020318932C4A3030078400F3
:10091800831300080B2583120313B00A832C831258
:100928000313BD1D9C2C2E300B2535300B25A02C18
:100938002E300B2530300B2D080046203330742024
:1009480083120313AF010830831203132F02031815
:10095800B92CAB2083120313B0003D302F0784005D
:10096800831330088000AF0AA72C080083120313F2
:10097800AE0004308A002E088207543465346D3482
:1009880070342034693473343A3483120313AE005C
:1009980004308A002E088207463461346E342034CD
:1009A8004F344E343A34203483120313AE000430EB
:1009B8008A002E08820748346934673468346534FD
:1009C800733474343A3483120313AE0004308A004B
:1009D8002E0882074C346F3477346534733474349A
:1009E8003A3420342830E12083120313861233303E
:1009F8000B2532300B2528300B250C300B25013008
:100A08000B2506300B258312031386160800831264
:100A18000313B100B11F8511B11B8515311F0511D5
:100A2800311B0515B11E8510B11A8514311E05102C
:100A3800311A05148611000086150530E12083124D
:100A48000313B11D8511B1198515311D0511311912
:100A58000515B11C8510B1188514311C0510311805
:100A680005148611000086150530E128831203134A
:100A7800AF002F0883169B0083122E0883169A0056
:100A88001C1555309D00AA309D009C148312031339
:100A98008C1F4A2D831603139C101C1183128C1370
:100AA800080083120313AE002E0883169B001C1443
:100AB8001A088312AF0083161C1083122F0808002F
:100AC80083120313AF002F080319982D013A031955
:100AD8009D2D033A0319A22D013A0319A72D073AB0
:100AE8000319AC2D013A0319B12D033A0319B62D98
:100AF800013A0319BB2D0F3A0319C02D013A031906
:100B0800C52D033A0319CA2D013A0319CF2D073A07
:100B18000319D42D013A0319D92D033A0319DE2DEF
:100B2800013A0319E32DE82D303083120313B00086
:100B3800EC2D313083120313B000EC2D32308312C8
:100B48000313B000EC2D333083120313B000EC2DE7
:100B5800343083120313B000EC2D353083120313A5
:100B6800B000EC2D363083120313B000EC2D373073
:100B780083120313B000EC2D383083120313B00036
:100B8800EC2D393083120313B000EC2D4130831261
:100B98000313B000EC2D423083120313B000EC2D88
:100BA800433083120313B000EC2D44308312031337
:100BB800B000EC2D453083120313B000EC2D463005
:100BC80083120313B000EC2D2A3083120313B000F4
:100BD8008312031330080800831203134A082D3ABE
:100BE800031D022E4B08303A031D022E4C08303AE2
:100BF8000319022E2030CA002D30CB0083120313B4
:100C08004A082D3A031D162E4B08303A031D162E9E
:100C18004C08303A031D162E2030CA002030CB0075
:100C28002D30CC00831203134A082B3A031D2E2EB5
:100C38004B08303A031D2E2E4C08303A031D2E2E39
:100C48004D08303A031D2E2E2030CA002030CB002C
:100C58002D30CC00831203134A08203A031D442E7A
:100C68004B082B3A031D442E4C08303A031D442EE2
:100C78004D08303A031D442E2030CA002B30CB00DB
:100C8800831203134A082B3A031D5A2E4B08303A95
:100C9800031D5A2E4C08303A031D5A2E4D08303A7F
:100CA80003195A2E2030CA002B30CB0083120313AD
:100CB8004A082B3A031D702E4B08303A031D702E3C
:100CC8004C08303A0319702E4D08303A0319702E2B
:100CD8002030CA002B30CB00831203134A082B3A6A
:100CE800031D862E4B08303A031D862E4C08303AD9
:100CF8000319862E4D08303A031D862E2030CA006F
:100D08002B30CB00080083120313AE00BC01831202
:100D180003132E083C0203189D2E0611FA30E12019
:100D2800831203130615FA30E12083120313BC0A59
:100D38008B2E08008312031306113230E120831230
:0A0D4800031306153230E1209E2E41
:02400E0070211F
:00000001FF
